{
  "_format": "hh-sol-artifact-1",
  "contractName": "PrescriptionContract",
  "sourceName": "contracts/PrescriptionContract.sol",
  "abi": [
    {
      "inputs": [
        {
          "internalType": "string",
          "name": "_patientName",
          "type": "string"
        },
        {
          "internalType": "string",
          "name": "_doctorName",
          "type": "string"
        },
        {
          "internalType": "string",
          "name": "_patientHealthID",
          "type": "string"
        },
        {
          "internalType": "string",
          "name": "_doctorID",
          "type": "string"
        },
        {
          "internalType": "string",
          "name": "_medicines",
          "type": "string"
        },
        {
          "internalType": "string",
          "name": "_tests",
          "type": "string"
        },
        {
          "internalType": "uint256",
          "name": "_sugarLevel",
          "type": "uint256"
        },
        {
          "internalType": "string",
          "name": "_dietPlan",
          "type": "string"
        },
        {
          "internalType": "uint256",
          "name": "_bloodPressure",
          "type": "uint256"
        },
        {
          "internalType": "string",
          "name": "_description",
          "type": "string"
        }
      ],
      "name": "createPrescription",
      "outputs": [],
      "stateMutability": "nonpayable",
      "type": "function"
    },
    {
      "inputs": [
        {
          "internalType": "string",
          "name": "_patientHealthID",
          "type": "string"
        }
      ],
      "name": "getPrescriptionsForPatient",
      "outputs": [
        {
          "components": [
            {
              "internalType": "string",
              "name": "patientName",
              "type": "string"
            },
            {
              "internalType": "string",
              "name": "doctorName",
              "type": "string"
            },
            {
              "internalType": "string",
              "name": "patientHealthID",
              "type": "string"
            },
            {
              "internalType": "string",
              "name": "doctorID",
              "type": "string"
            },
            {
              "internalType": "string",
              "name": "medicines",
              "type": "string"
            },
            {
              "internalType": "string",
              "name": "tests",
              "type": "string"
            },
            {
              "internalType": "uint256",
              "name": "sugarLevel",
              "type": "uint256"
            },
            {
              "internalType": "string",
              "name": "dietPlan",
              "type": "string"
            },
            {
              "internalType": "uint256",
              "name": "bloodPressure",
              "type": "uint256"
            },
            {
              "internalType": "string",
              "name": "description",
              "type": "string"
            }
          ],
          "internalType": "struct PrescriptionContract.Prescription[]",
          "name": "",
          "type": "tuple[]"
        }
      ],
      "stateMutability": "view",
      "type": "function"
    },
    {
      "inputs": [
        {
          "internalType": "uint256",
          "name": "",
          "type": "uint256"
        }
      ],
      "name": "prescriptions",
      "outputs": [
        {
          "internalType": "string",
          "name": "patientName",
          "type": "string"
        },
        {
          "internalType": "string",
          "name": "doctorName",
          "type": "string"
        },
        {
          "internalType": "string",
          "name": "patientHealthID",
          "type": "string"
        },
        {
          "internalType": "string",
          "name": "doctorID",
          "type": "string"
        },
        {
          "internalType": "string",
          "name": "medicines",
          "type": "string"
        },
        {
          "internalType": "string",
          "name": "tests",
          "type": "string"
        },
        {
          "internalType": "uint256",
          "name": "sugarLevel",
          "type": "uint256"
        },
        {
          "internalType": "string",
          "name": "dietPlan",
          "type": "string"
        },
        {
          "internalType": "uint256",
          "name": "bloodPressure",
          "type": "uint256"
        },
        {
          "internalType": "string",
          "name": "description",
          "type": "string"
        }
      ],
      "stateMutability": "view",
      "type": "function"
    }
  ],
  "bytecode": "0x608060405234801561001057600080fd5b50611bd8806100206000396000f3fe608060405234801561001057600080fd5b50600436106100415760003560e01c8063186de6011461004657806331dfc91b146100765780638de7cfd9146100af575b600080fd5b610060600480360381019061005b9190610fd8565b6100cb565b60405161006d9190611286565b60405180910390f35b610090600480360381019061008b91906112d4565b610776565b6040516100a69a9998979695949392919061135a565b60405180910390f35b6100c960048036038101906100c4919061142e565b610c1a565b005b60606000805b60008054905081101561017757836040516020016100ef9190611629565b604051602081830303815290604052805190602001206000828154811061011957610118611640565b5b90600052602060002090600a020160020160405160200161013a9190611767565b6040516020818303038152906040528051906020012003610164578180610160906117ad565b9250505b808061016f906117ad565b9150506100d1565b5060008167ffffffffffffffff81111561019457610193610ead565b5b6040519080825280602002602001820160405280156101cd57816020015b6101ba610e2b565b8152602001906001900390816101b25790505b5090506000805b60008054905081101561076a57856040516020016101f29190611629565b604051602081830303815290604052805190602001206000828154811061021c5761021b611640565b5b90600052602060002090600a020160020160405160200161023d9190611767565b6040516020818303038152906040528051906020012003610757576000818154811061026c5761026b611640565b5b90600052602060002090600a0201604051806101400160405290816000820180546102969061169e565b80601f01602080910402602001604051908101604052809291908181526020018280546102c29061169e565b801561030f5780601f106102e45761010080835404028352916020019161030f565b820191906000526020600020905b8154815290600101906020018083116102f257829003601f168201915b505050505081526020016001820180546103289061169e565b80601f01602080910402602001604051908101604052809291908181526020018280546103549061169e565b80156103a15780601f10610376576101008083540402835291602001916103a1565b820191906000526020600020905b81548152906001019060200180831161038457829003601f168201915b505050505081526020016002820180546103ba9061169e565b80601f01602080910402602001604051908101604052809291908181526020018280546103e69061169e565b80156104335780601f1061040857610100808354040283529160200191610433565b820191906000526020600020905b81548152906001019060200180831161041657829003601f168201915b5050505050815260200160038201805461044c9061169e565b80601f01602080910402602001604051908101604052809291908181526020018280546104789061169e565b80156104c55780601f1061049a576101008083540402835291602001916104c5565b820191906000526020600020905b8154815290600101906020018083116104a857829003601f168201915b505050505081526020016004820180546104de9061169e565b80601f016020809104026020016040519081016040528092919081815260200182805461050a9061169e565b80156105575780601f1061052c57610100808354040283529160200191610557565b820191906000526020600020905b81548152906001019060200180831161053a57829003601f168201915b505050505081526020016005820180546105709061169e565b80601f016020809104026020016040519081016040528092919081815260200182805461059c9061169e565b80156105e95780601f106105be576101008083540402835291602001916105e9565b820191906000526020600020905b8154815290600101906020018083116105cc57829003601f168201915b505050505081526020016006820154815260200160078201805461060c9061169e565b80601f01602080910402602001604051908101604052809291908181526020018280546106389061169e565b80156106855780601f1061065a57610100808354040283529160200191610685565b820191906000526020600020905b81548152906001019060200180831161066857829003601f168201915b50505050508152602001600882015481526020016009820180546106a89061169e565b80601f01602080910402602001604051908101604052809291908181526020018280546106d49061169e565b80156107215780601f106106f657610100808354040283529160200191610721565b820191906000526020600020905b81548152906001019060200180831161070457829003601f168201915b50505050508152505083838151811061073d5761073c611640565b5b60200260200101819052508180610753906117ad565b9250505b8080610762906117ad565b9150506101d4565b50819350505050919050565b6000818154811061078657600080fd5b90600052602060002090600a02016000915090508060000180546107a99061169e565b80601f01602080910402602001604051908101604052809291908181526020018280546107d59061169e565b80156108225780601f106107f757610100808354040283529160200191610822565b820191906000526020600020905b81548152906001019060200180831161080557829003601f168201915b5050505050908060010180546108379061169e565b80601f01602080910402602001604051908101604052809291908181526020018280546108639061169e565b80156108b05780601f10610885576101008083540402835291602001916108b0565b820191906000526020600020905b81548152906001019060200180831161089357829003601f168201915b5050505050908060020180546108c59061169e565b80601f01602080910402602001604051908101604052809291908181526020018280546108f19061169e565b801561093e5780601f106109135761010080835404028352916020019161093e565b820191906000526020600020905b81548152906001019060200180831161092157829003601f168201915b5050505050908060030180546109539061169e565b80601f016020809104026020016040519081016040528092919081815260200182805461097f9061169e565b80156109cc5780601f106109a1576101008083540402835291602001916109cc565b820191906000526020600020905b8154815290600101906020018083116109af57829003601f168201915b5050505050908060040180546109e19061169e565b80601f0160208091040260200160405190810160405280929190818152602001828054610a0d9061169e565b8015610a5a5780601f10610a2f57610100808354040283529160200191610a5a565b820191906000526020600020905b815481529060010190602001808311610a3d57829003601f168201915b505050505090806005018054610a6f9061169e565b80601f0160208091040260200160405190810160405280929190818152602001828054610a9b9061169e565b8015610ae85780601f10610abd57610100808354040283529160200191610ae8565b820191906000526020600020905b815481529060010190602001808311610acb57829003601f168201915b505050505090806006015490806007018054610b039061169e565b80601f0160208091040260200160405190810160405280929190818152602001828054610b2f9061169e565b8015610b7c5780601f10610b5157610100808354040283529160200191610b7c565b820191906000526020600020905b815481529060010190602001808311610b5f57829003601f168201915b505050505090806008015490806009018054610b979061169e565b80601f0160208091040260200160405190810160405280929190818152602001828054610bc39061169e565b8015610c105780601f10610be557610100808354040283529160200191610c10565b820191906000526020600020905b815481529060010190602001808311610bf357829003601f168201915b505050505090508a565b6000815111610c5e576040517f08c379a0000000000000000000000000000000000000000000000000000000008152600401610c5590611841565b60405180910390fd5b60008a5111610ca2576040517f08c379a0000000000000000000000000000000000000000000000000000000008152600401610c99906118ad565b60405180910390fd5b6000895111610ce6576040517f08c379a0000000000000000000000000000000000000000000000000000000008152600401610cdd90611919565b60405180910390fd5b60006040518061014001604052808c81526020018b81526020018a81526020018981526020018881526020018781526020018681526020018581526020018481526020018381525090806001815401808255809150506001900390600052602060002090600a02016000909190919091506000820151816000019081610d6c9190611ad0565b506020820151816001019081610d829190611ad0565b506040820151816002019081610d989190611ad0565b506060820151816003019081610dae9190611ad0565b506080820151816004019081610dc49190611ad0565b5060a0820151816005019081610dda9190611ad0565b5060c0820151816006015560e0820151816007019081610dfa9190611ad0565b506101008201518160080155610120820151816009019081610e1c9190611ad0565b50505050505050505050505050565b604051806101400160405280606081526020016060815260200160608152602001606081526020016060815260200160608152602001600081526020016060815260200160008152602001606081525090565b6000604051905090565b600080fd5b600080fd5b600080fd5b600080fd5b6000601f19601f8301169050919050565b7f4e487b7100000000000000000000000000000000000000000000000000000000600052604160045260246000fd5b610ee582610e9c565b810181811067ffffffffffffffff82111715610f0457610f03610ead565b5b80604052505050565b6000610f17610e7e565b9050610f238282610edc565b919050565b600067ffffffffffffffff821115610f4357610f42610ead565b5b610f4c82610e9c565b9050602081019050919050565b82818337600083830152505050565b6000610f7b610f7684610f28565b610f0d565b905082815260208101848484011115610f9757610f96610e97565b5b610fa2848285610f59565b509392505050565b600082601f830112610fbf57610fbe610e92565b5b8135610fcf848260208601610f68565b91505092915050565b600060208284031215610fee57610fed610e88565b5b600082013567ffffffffffffffff81111561100c5761100b610e8d565b5b61101884828501610faa565b91505092915050565b600081519050919050565b600082825260208201905092915050565b6000819050602082019050919050565b600081519050919050565b600082825260208201905092915050565b60005b8381101561108757808201518184015260208101905061106c565b60008484015250505050565b600061109e8261104d565b6110a88185611058565b93506110b8818560208601611069565b6110c181610e9c565b840191505092915050565b6000819050919050565b6110df816110cc565b82525050565b60006101408301600083015184820360008601526111038282611093565b9150506020830151848203602086015261111d8282611093565b915050604083015184820360408601526111378282611093565b915050606083015184820360608601526111518282611093565b9150506080830151848203608086015261116b8282611093565b91505060a083015184820360a08601526111858282611093565b91505060c083015161119a60c08601826110d6565b5060e083015184820360e08601526111b28282611093565b9150506101008301516111c96101008601826110d6565b506101208301518482036101208601526111e38282611093565b9150508091505092915050565b60006111fc83836110e5565b905092915050565b6000602082019050919050565b600061121c82611021565b611226818561102c565b9350836020820285016112388561103d565b8060005b85811015611274578484038952815161125585826111f0565b945061126083611204565b925060208a0199505060018101905061123c565b50829750879550505050505092915050565b600060208201905081810360008301526112a08184611211565b905092915050565b6112b1816110cc565b81146112bc57600080fd5b50565b6000813590506112ce816112a8565b92915050565b6000602082840312156112ea576112e9610e88565b5b60006112f8848285016112bf565b91505092915050565b600082825260208201905092915050565b600061131d8261104d565b6113278185611301565b9350611337818560208601611069565b61134081610e9c565b840191505092915050565b611354816110cc565b82525050565b6000610140820190508181036000830152611375818d611312565b90508181036020830152611389818c611312565b9050818103604083015261139d818b611312565b905081810360608301526113b1818a611312565b905081810360808301526113c58189611312565b905081810360a08301526113d98188611312565b90506113e860c083018761134b565b81810360e08301526113fa8186611312565b905061140a61010083018561134b565b81810361012083015261141d8184611312565b90509b9a5050505050505050505050565b6000806000806000806000806000806101408b8d03121561145257611451610e88565b5b60008b013567ffffffffffffffff8111156114705761146f610e8d565b5b61147c8d828e01610faa565b9a505060208b013567ffffffffffffffff81111561149d5761149c610e8d565b5b6114a98d828e01610faa565b99505060408b013567ffffffffffffffff8111156114ca576114c9610e8d565b5b6114d68d828e01610faa565b98505060608b013567ffffffffffffffff8111156114f7576114f6610e8d565b5b6115038d828e01610faa565b97505060808b013567ffffffffffffffff81111561152457611523610e8d565b5b6115308d828e01610faa565b96505060a08b013567ffffffffffffffff81111561155157611550610e8d565b5b61155d8d828e01610faa565b95505060c061156e8d828e016112bf565b94505060e08b013567ffffffffffffffff81111561158f5761158e610e8d565b5b61159b8d828e01610faa565b9350506101006115ad8d828e016112bf565b9250506101208b013567ffffffffffffffff8111156115cf576115ce610e8d565b5b6115db8d828e01610faa565b9150509295989b9194979a5092959850565b600081905092915050565b60006116038261104d565b61160d81856115ed565b935061161d818560208601611069565b80840191505092915050565b600061163582846115f8565b915081905092915050565b7f4e487b7100000000000000000000000000000000000000000000000000000000600052603260045260246000fd5b7f4e487b7100000000000000000000000000000000000000000000000000000000600052602260045260246000fd5b600060028204905060018216806116b657607f821691505b6020821081036116c9576116c861166f565b5b50919050565b60008190508160005260206000209050919050565b600081546116f18161169e565b6116fb81866115ed565b94506001821660008114611716576001811461172b5761175e565b60ff198316865281151582028601935061175e565b611734856116cf565b60005b8381101561175657815481890152600182019150602081019050611737565b838801955050505b50505092915050565b600061177382846116e4565b915081905092915050565b7f4e487b7100000000000000000000000000000000000000000000000000000000600052601160045260246000fd5b60006117b8826110cc565b91507fffffffffffffffffffffffffffffffffffffffffffffffffffffffffffffffff82036117ea576117e961177e565b5b600182019050919050565b7f4465736372697074696f6e206973207265717569726564000000000000000000600082015250565b600061182b601783611301565b9150611836826117f5565b602082019050919050565b6000602082019050818103600083015261185a8161181e565b9050919050565b7f50617469656e74206e616d652069732072657175697265640000000000000000600082015250565b6000611897601883611301565b91506118a282611861565b602082019050919050565b600060208201905081810360008301526118c68161188a565b9050919050565b7f446f63746f72206e616d65206973207265717569726564000000000000000000600082015250565b6000611903601783611301565b915061190e826118cd565b602082019050919050565b60006020820190508181036000830152611932816118f6565b9050919050565b60006020601f8301049050919050565b600082821b905092915050565b6000600883026119867fffffffffffffffffffffffffffffffffffffffffffffffffffffffffffffffff82611949565b6119908683611949565b95508019841693508086168417925050509392505050565b6000819050919050565b60006119cd6119c86119c3846110cc565b6119a8565b6110cc565b9050919050565b6000819050919050565b6119e7836119b2565b6119fb6119f3826119d4565b848454611956565b825550505050565b600090565b611a10611a03565b611a1b8184846119de565b505050565b5b81811015611a3f57611a34600082611a08565b600181019050611a21565b5050565b601f821115611a8457611a55816116cf565b611a5e84611939565b81016020851015611a6d578190505b611a81611a7985611939565b830182611a20565b50505b505050565b600082821c905092915050565b6000611aa760001984600802611a89565b1980831691505092915050565b6000611ac08383611a96565b9150826002028217905092915050565b611ad98261104d565b67ffffffffffffffff811115611af257611af1610ead565b5b611afc825461169e565b611b07828285611a43565b600060209050601f831160018114611b3a5760008415611b28578287015190505b611b328582611ab4565b865550611b9a565b601f198416611b48866116cf565b60005b82811015611b7057848901518255600182019150602085019450602081019050611b4b565b86831015611b8d5784890151611b89601f891682611a96565b8355505b6001600288020188555050505b50505050505056fea26469706673582212209ca2cba697189404c31eb5a1253fe331e28e7eaf81fd68573ce3ad97c56ad52564736f6c63430008120033",
  "linkReferences": {},
  "deployedLinkReferences": {}
}